:0A0000000C9480000C9400000C9496
:10000A0000000C9400000C9400000C9400000C9466
:10001A0000000C9400000C9400000C9400000C9456
:10002A0000000C9400000C9400000C9400000C9446
:10003A0000000C9400000C9400000C9400000C9436
:10004A0000000C9400000C94000057454C434F4D9F
:10005A004500544F20415652005354415254494E80
:10006A00470053595354454D005374617274696E75
:10007A00672E2E2E2E0052656164792021212100DF
:10008A005741524E494E47212121004E6F7420613B
:10009A006C6C6F776564000080C0080060015400D2
:1000AA00070068015C0009006F016300070078011E
:1000BA006C000D007F0173000A008C0180000B00A8
:1000CA0096018A000C00A10195000D00AD01730094
:1000DA000A00BA0180000B00C4018A000C00CF019B
:1000EA0095000B00DB018A000C00E6019500020076
:1000FA00F201A2000000F894EE27ECBBF1E0FBBF8E
:10010A00EBBFE5BFF8E1F1BDE1BD8DE0A2E0BB27A1
:10011A00ED938A95E9F780E094E0A0E6ED930197E4
:10012A00E9F7E4EAF0E085919591009761F0A591ED
:10013A00B59105901590BF01F00105900D920197B8
:10014A00E1F7FB01F0CFEFE5EDBFE4E0EEBFC0E67B
:10015A00D1E00C94B000EFEFEBBBE0E0EABBE8BB08
:10016A00E7BBE5BBE4BBE2BBEFEFE1BBE0E0E3BF2B
:10017A00E2BFECBFEFBDEEBDEDBDECBDE7BDE6BD38
:10018A00EBBDEABDE9BDE8BDE2BDE5BDE4BDE3BD49
:10019A00E5BFE4BFE9BFEAB9E0E8E8B9E0E0E0BFFB
:1001AA00E6B9EDB9E6BFE0E1EA9300D12ED1E0E687
:1001BA00F1E030D132D1E8E6F1E02CD133D1C7D029
:1001CA0024D1EFE6F1E026D128D1E8E7F1E022D107
:1001DA0029D1C89913C0CF9906C02AD1EFE7F1E017
:1001EA0019D133D102C09098B2D0919A34D1E0E5B6
:1001FA0038D1ECE8F1E00ED128D103C0909891985B
:10020A00A6D0C99916C0CF990AC032D1E6E9F1E061
:10021A0001D134D1E1EAF1E0FDD017D101C097D084
:10022A00929A19D1E2E5EA939DD0E2E3F0E02BD16C
:10023A0002C092988CD0CA9913C0CF9906C0F8D040
:10024A00EDEAF1E0E7D001D102C0909880D0939A0C
:10025A0002D1EEE406D1EAEBF1E0DCD0F6D003C03D
:10026A009098939874D0CB9916C0CF990CC000D1AE
:10027A00E4ECF1E0CFD002D1EFECF1E0CBD0E4EF47
:10028A00F1E001D101C063D0949AE5D0E1E3EA93A9
:10029A0069D0DBD002C094985AD0CC9916C0CF99B5
:1002AA000CC0E6D0EBEDF1E0B5D0E8D0E6EEF1E037
:1002BA00B1D0E4EFF1E0E7D001C049D0959ACBD0B4
:1002CA00E4E4EA934FD0C1D002C0959840D081CFE0
:1002DA00FFCFE881E07111F0C49A01C0C498E881A7
:1002EA00E07211F0C59A01C0C598E881E07411F076
:1002FA00C69A01C0C698E881E07811F0C79A01C091
:10030A00C79885E08A95F1F7C29A8DE08A95F1F748
:10031A00C2988DE08A95F1F776C0E881EA93D9DF31
:10032A00E881E295E883E881EA93D3DF85E88A9554
:10033A00F1F769C0E881F0E0EE50FE4FE081A98153
:10034A00EA0FEA93EADF5980488022960895E2E0AC
:10035A009ED0ECE0EA93E1DFE1E099D0E0E04E2EB6
:10036A005E2E0895A881AA3011F0571448F0E0E0F3
:10037A00EA9343944A92DEDFA881AA3009F443C083
:10038A005394C09AE881EA93C8DFC0983CC01A9394
:10039A00A981BA81ED91A983BA831E2FE03019F0A1
:1003AA001A93E0DFF5CF188123960895BC9ABD9A77
:1003BA00BE9ABF9ABA9AB89AB99AC298C098C1987E
:1003CA007880E881E058E093F401E881E054E09312
:1003DA00F501E4E1F0E057D05FD05ED05DD0E0E215
:1003EA00EA9377DF88EC90E00197F1F7E8E2EA9385
:1003FA0094DFE4E0EA9391DFE5E8EA938EDFE6E052
:10040A00EA938BDFA4DF21960895E5E0EA93E0E022
:10041A00EA9390CFFA93EA93BACFE6E0EA93E1E05F
:10042A00EA9388CFE8ECF0E0FA93EA930C94590245
:10043A00909AE2E3F0E0FA93EA930E94590287DF86
:10044A00E3E0EA93E1E0EA9375CFE4E6F0E0FA93B9
:10045A00EA930C9459027BDFE8E0EA93E0E0EA933E
:10046A0069CFEA937FDFE4E0EA93E1E0EA9362CFBF
:10047A006EDFE3E0EA93E0E0EA935CCFE2E0EA933E
:10048A00E1E0EA9357CFFA93EA930C945902EA937C
:10049A0044DFE3E0F0E0F7CFE0E3EA931ADF88EC29
:1004AA0090E00197F1F70895E991F991309639F0C2
:1004BA0080ED97E00197F1F7A8953197C9F708956C
:00000001FF
