:0C0000000C9482000C9459010C94000038
:10000C000C9400000C9400000C9400000C94000064
:10001C000C9400000C9400000C9400000C94000054
:10002C000C9400000C9400000C9400000C94000044
:10003C000C9400000C9400000C9400000C94000034
:10004C000C9400000C9400000000737570706C65CB
:10005C006D656E74616C00726573747261696E7437
:10006C002073797374656D005365617462656C748B
:10007C003A204F4646004169726261672020456D07
:10008C00706C6F796564007373313A2534647373E3
:10009C00323A2534640A0D0025730A0D005365614C
:1000AC007462656C743A20204F4E00002D4E414E08
:1000BC00000001002D4E414E00494E46000080C00C
:1000CC000D006001560011006D0163000E007E01F1
:1000DC00740011008C0182000E009D01A9000E001D
:1000EC00AB0174000100050054000100CA01BE0000
:1000FC000200CE01CA000000F894EE27ECBBF1E040
:10010C00FBBFEBBFE5BFF8E1F1BDE1BD8DE0A2E0C7
:10011C00BB27ED938A95E9F780E094E0A0E6ED9398
:10012C000197E9F7ECECF0E085919591009761F07F
:10013C00A591B59105901590BF01F00105900D9218
:10014C000197E1F7FB01F0CFEFE5EDBFE4E0EEBF87
:10015C00C0E6D1E00C94B200E0E1EA930E940C09F5
:10016C00D6D0E5D005D10ED17894E2E0EA93E0E068
:10017C00EA930E94C208E0E6F1E0FA93EA930E9447
:10018C00FD08E0E0EA93E1E0EA930E94C208EDE6A4
:10019C00F1E0FA93EA930E94FD08E8EEF3E0FA939B
:1001AC00EA930E94B60900E010E00730E0E01E0779
:1001BC0088F4C098E4E6F0E0FA93EA930E94B6095A
:1001CC00C09AE4E6F0E0FA93EA930E94B6090F5F56
:1001DC001F4FEBCF0E94CF08E0E0EA93EA930E9416
:1001EC00C208EEE7F1E0FA93EA930E94FD08E9D029
:1001FC00A091B901A130B1F5C19AE4EFF1E06E160E
:10020C007F0618F08E169F0608F42AC0D3D0E0E0C3
:10021C00EA93E1E0EA930E94C208ECE8F1E0FA9379
:10022C00EA930E94FD08E1E0E515C9F4E091B901FB
:10023C00E03079F4C198E8EEF3E0FA93EA930E9487
:10024C00B609C19AE8EEF3E0FA93EA930E94B60974
:10025C0005C0A091B901A13009F4C19AE4CF01C045
:10026C00B0D01FC0AED0C198E8EEF3E0FA93EA9399
:10027C000E94B609C19AE8EEF3E0FA93EA930E9461
:10028C00B609E4EFF1E06E167F0618F08E169F06A5
:10029C0008F406C096D0829902C093D0FCCF01C05E
:1002AC0090D0A5CFFFCF0A921A92FA926A937A93C2
:1002BC008A939A93AA93BA93EA93FA93EFB7EA9331
:1002CC00E091B901F0E0A1E0B0E00E94F50BEA1B6F
:1002DC00FB0BE093B901E091B901F0E0FA93EA93DA
:1002EC00A9D0C298E4E1F0E0FA93EA930E94B6092F
:1002FC00C29AE991EFBFF991E991B991A9919991BC
:10030C00899179916991F990199009901895E4E087
:10031C00EBBBEABBE7E0E8BBEFEFE7BBE0E0E5BB3C
:10032C00EFEFE4BBE0E0E2BBE0E3E1BB0895E0E427
:10033C00E7B9E5EAE6B9E0B7E070E0BF0895E8E4B4
:10034C00E3BFE0E0E2BFEFE7ECBF0FC0E3EAEFBDD5
:10035C00E9E0EEBDE0E0EDBDECBDE7BDE6BDEAE0F9
:10036C00F0E0FBBDEABDF9BDE8BDE0E0E9BF0895F2
:10037C00EBB7E064EBBFE2E0E5BFE0E0E4BFE0E454
:10038C00EABF0895E0E0EBB9E8E1EAB9E6E8E0BDE0
:10039C00E0E0E0BDE3E3E9B90895E881E064E7B9A2
:1003AC008BE18A95F1F7369A349BFECF349AE4B1FF
:1003BC00F5B161C0C098DA98C2DFC8DFE1E05E2E0B
:1003CC000895E0E0EA93E9DF3F01E1E0EA93E5DF3D
:1003DC004F01EAEBF1E0FA93EA93E3E9F0E0FA93E8
:1003EC00EA93F301662777270E94EA0BF40166274C
:1003FC0077270E94EA0B88E00E94FC062C96E4EA20
:10040C00F0E0FA93EA93EAEBF1E0662777270E9493
:10041C00EA0B84E00E943A072696E0E0EA93E1E0DA
:10042C00EA930E94C208EAEBF1E0FA93EA930E9485
:10043C00FD080895A881B981119741F4E0E0EA9391
:10044C00EA930E94C208EDE9F1E00BC0E881F98162
:10045C00309759F4E0E0EA93EA930E94C208EBEA81
:10046C00F1E0FA93EA930E94FD080C94CD085D9B91
:10047C00FECFE881ECB921960895EA81EA93F7DF83
:10048C00A881B981ED91FD913196FE93EE930C9478
:10049C000A091A930A93AA81BB8112960E94D60B61
:1004AC00309759F1AA81BB8114960E94D60B8F010B
:1004BC00309761F00230E0E01E07F0F0F801319760
:1004CC008F01AA81BB811496ED93FC93AA81BB8109
:1004DC001296ED91FD913196FE93EE933197AC818E
:1004EC00A083AA81BB810E94D60BFF232AF0ED9139
:1004FC00FD913196FE93EE9306C0AA81BB81EFEF7E
:10050C00FFEFED93FC9319810881259608952497AC
:10051C00E0E0E883E983E0E8EA83EFE3EB830E9421
:10052C00020CEE85FF85EF3FAFEFFA0759F4E88533
:10053C00F985FA93EA93E8EBF0E0FA93EA930E94D8
:10054C00500949C1EF3FAFE7FA0759F4E885F9853F
:10055C00FA93EA93E9EBF0E0FA93EA930E945009DC
:10056C003AC1AB85A73010F0E6E0EB871B85E12F95
:10057C001150E03079F0AC81BD818E819F81E0E03B
:10058C00F0E060E271E40E94B80AEC83FD836E83B4
:10059C007F83EDCFEC85FD856E857F850E94FC0BFE
:1005AC0081F430E0AC81BD818E819F81E0E0F0E090
:1005BC0060E271E40E94B80AEC83FD836E837F8352
:1005CC007EC03B85EC81FD816E817F81AC85BD85D4
:1005DC008E859F850E944B0B09F010F40C941C0324
:1005EC00AC81BD818E819F81E0E0F0E060E271E43E
:1005FC000E94B80AEC83FD836E837F83EC81FD81BE
:10060C006E817F81AC85BD858E859F850E944B0B4D
:10061C0060F0EDECFCEC6CEC7DE30E94B80AEC872E
:10062C00FD876E877F873F5FE9CF25C0EC81FD8119
:10063C006E817F81AC85BD858E859F850E944B0B1D
:10064C0060F4E0E0F0E060E271E40E94B80AEC874C
:10065C00FD876E877F873150E9CFAC81BD818E815C
:10066C009F81E0E0F0E060E271E40E94B80AEC8364
:10067C00FD836E837F83EC85FD856E857F85A0E091
:10068C00B0E080E09FE30E94680AEC87FD876E87EC
:10069C007F87EC81FD816E817F81AC85BD858E85E8
:1006AC009F850E944B0B58F0EDECFCEC6CEC7DE361
:1006BC000E94B80AEC87FD876E877F873F5F10E04A
:1006CC00EB85E11710F40C94BB03AC81BD818E81DA
:1006DC009F81EDECFCEC6CEC7DE30E94B80AA0E091
:1006EC00B0E080E09FE30E94680A0E94EA0B0E943F
:1006FC009F09EC83FD836E837F83AC85BD858E85DE
:10070C009F850E94060B0E94F5090E2FA885B985BE
:10071C001196A887B9871197E02FE05DEC93E02F35
:10072C00FF27662777270E942E0AAC81BD818E8118
:10073C009F810E94B80AAC85BD858E859F850E94DD
:10074C00EF0B0E94610AEC87FD876E877F87E12F94
:10075C001F5FE03009F0B4CFA885B9851196A88742
:10076C00B9871197EEE2EC93ABCFE885F98531961A
:10077C00E887F9873197AA85A08330302CF431951E
:10078C00A885B985EDE203C0A885B985EBE2EC93A9
:10079C00E885F9853196E887F9873196E887F987F6
:1007AC003197BF01A32FEAE00E94900BE05DDB01C3
:1007BC00EC93E885F9853196E887F9873197BF0185
:1007CC00A32FEAE00E94BA0BE05DDB01EC93A88555
:1007DC00B985E0E0EC930E94090C60960895EF97C0
:1007EC0061970E94000C10E0FE01E85AFF4F019047
:1007FC00F081E02DE887F987FE01EA5AFF4F01905E
:10080C00F081E02DEE83FF83AE81BF81E0E0F0E06C
:10081C00ED93FC93DE01A45ABF4FED91FD913196FF
:10082C00FE93EE933197E4912E2FE03011F40C945B
:10083C00F306E12FE03069F4253211F411E008C021
:10084C002A93EF81F885FA93EA93EB85FC85099559
:10085C00C3C2E130F1F4253249F42A93EF81F885D3
:10086C00FA93EA93EB85FC850995B5C212E0E0E0BA
:10087C00ED8B00E02D3211F401E0AEC22B3219F4F5
:10088C00EBE2ED8BA9C2203219F4E0E2ED8BA4C2AD
:10089C0002C0E23039F450E013E0203311F4006868
:1008AC009BC202C0E33091F4203310F02A3308F0DD
:1008BC0007C0AAE05A9F502DE22FE0535E0F8CC266
:1008CC0040E02E3211F414E087C20FC0E43099F4EA
:1008DC00203310F02A3308F008C00062AAE04A9FC7
:1008EC00402DE22FE0534E0F77C22C3619F40260E4
:1008FC0015E072C204C0E53011F00C94F206E22F40
:10090C00E336B1F4FE01E65AFF4F0190F081E02D81
:10091C003497DE01A65ABF4FED93FC93A481AA93A2
:10092C00EF81F885FA93EA93EB85FC85099553C220
:10093C00E53411F0E53609F404C0E63611F00C94F8
:10094C001305FE017696EE87FF87DE01A65ABF4F90
:10095C000D90BC91A02D0E94DA0BEA87FB876C8767
:10096C007D87FE01E65AFF4F0190F081E02D349710
:10097C00DE01A65ABF4FED93FC93AD85AA2322F05E
:10098C00AD89AB3269F020C0EA85FB856C857D852D
:10099C000E94C209EA87FB876C877D87EDE2ED8BAD
:1009AC0007FF0AC0ED89EA93EF81F885FA93EA9381
:1009BC00EB85FC85099508C0EE85FF853196EE87A1
:1009CC00FF873197AD89A08305FF46E0263671F489
:1009DC00EA85FB856C857D850E94EA0B4A93EB8941
:1009EC00FC89FA93EA930E9461070DC0EA85FB85A6
:1009FC006C857D850E94EA0B4A932A93EC89FD89CC
:100A0C00FA93EA9384DDFE017696EE87FF87FA93DC
:100A1C00EA930E945B091E2F45C0E337E9F4FE01FF
:100A2C00E65AFF4F0190F081E02D3497DE01A65A73
:100A3C00BF4FED93FC93DE01A65ABF4F0D90BC91B6
:100A4C00A02D14960E94D60BEE87FF87FA93EA939B
:100A5C000E945B091E2F1FC0E03749F5FE01E65AC4
:100A6C00FF4F0190F081E02D3497DE01A65ABF4F65
:100A7C00ED93FC93DE01A65ABF4F0D90BC91A02DB7
:100A8C0014960E94D60BEE87FF87FA93EA930E9486
:100A9C0065091E2F08600F77403011F0411708F0E0
:100AAC0001C0142F40E0E0E0EC8B30E0AAC0E4364B
:100ABC0011F0E93611F4046002C0E537C1F4EAE044
:100ACC00EC8B01FF0AC0E0E0FAEC6AE97BE3E88B0F
:100ADC00F98B6A8B7B8B1AE029C0E0E1F7E260E0CE
:100AEC0070E0E88BF98B6A8B7B8B15E01FC0E835C7
:100AFC0011F4086004C0E83711F00C94F106E0E141
:100B0C00EC8B01FF0AC0E0E0F0E060E070E1E88B04
:100B1C00F98B6A8B7B8B18E009C0E0E0F0E160E0B8
:100B2C0070E0E88BF98B6A8B7B8B14E0403011F012
:100B3C000F7701C041E001FF16C0FE01E65AFF4FDE
:100B4C000190F081E02D3497DE01A65ABF4FED9352
:100B5C00FC93DE01A65ABF4F0D90BC91A02D1496AC
:100B6C000E94DA0B31C002FF18C0FE01E65AFF4F9B
:100B7C000190F081E02D3497DE01A65ABF4FED9322
:100B8C00FC93DE01A65ABF4F0D90BC91A02D14967C
:100B9C000E94D60B0E947D0B17C0FE01E65AFF4F38
:100BAC000190F081E02D3497DE01A65ABF4FED93F2
:100BBC00FC93DE01A65ABF4F0D90BC91A02D14964C
:100BCC000E94D60B66277727EA87FB876C877D8781
:100BDC0002FF16C0AD85AA2362F4EA85FB856C85FD
:100BEC007D850E946F0BEA87FB876C877D87EDE222
:100BFC00ED8BED89E03019F01F5F4F5F01C00B7F6B
:100C0C00342F00FD1AC0151710F4351708F015C055
:100C1C0007FF08C002FF04C00B7F2D89115001C0D3
:100C2C0020E301C020E22A93EF81F885FA93EA933E
:100C3C00EB85FC8509955150E6CF141740F5006102
:100C4C0002FF17C00B7FED89EA93FE01E95AFF4FB3
:100C5C000190F081E02DFA93EA93FE01E55AFF4FE3
:100C6C000190F081E02D0995503009F05150115050
:100C7C004150E0E3EA93EF81F885FA93EA93EB8530
:100C8C00FC850995503009F051504150D6CF312F89
:100C9C00EC89E030E9F43030D1F003FF06C0EE858A
:100CAC00FF852591EE87FF8705C0AE85BF852D9109
:100CBC00AE87BF872A93EF81F885FA93EA93EB8589
:100CCC00FC850995503009F051503150E4CF74C077
:100CDC00E889F9896A897B89AA85BB858C859D857C
:100CEC000E94950B2E2F2A3030F003FF02C0295C96
:100CFC0001C0295A01C0205D04FD32C0213360F4CB
:100D0C00A889B9898A899B89A130E0E0BE07E0E017
:100D1C008E07E0E09E0709F40BC0431740F453170D
:100D2C0010F000FF01C027C020E207FF19C020E32C
:100D3C00006102FF15C00B7FED89EA93FE01E95AB1
:100D4C00FF4F0190F081E02DFA93EA93FE01E55AF2
:100D5C00FF4F0190F081E02D0995503009F0515072
:100D6C002A93EF81F885FA93EA93EB85FC85099534
:100D7C00503009F051503150E889F9896A897B89E2
:100D8C00AA85BB858C859D850E94C60BEA87FB874F
:100D9C006C877D87EC89A889B9898A899B89FF270B
:100DAC00662777270E94950BE88BF98B6A8B7B8BD8
:100DBC000E94FC0B09F08CCF00FF0DC0503059F095
:100DCC005150E0E2EA93EF81F885FA93EA93EB85D0
:100DDC00FC850995F3CF10E01DCDAE81BF810E943B
:100DEC00D60B0E94070CEF966F960895FF92F82E83
:100DFC0026970E94020CDE011C960E946B0B0E942F
:100E0C00D60B309719F4EFEFFFEF29C0DE011696E1
:100E1C000E946B0B8D01DE011C960E946B0B0E94D5
:100E2C00D60BEE83FF83E0E0E887E987DE011A96B4
:100E3C000E946B0B0E94D60BFA93EA931A930A93B7
:100E4C00EFE4F2E0FA93EA93FE013A96FA93EA930E
:100E5C00C6DC9F01AE81BF81E0E0EC93F9010E94FA
:100E6C00090C2A96FF900895FF92F82E26971A9354
:100E7C000A93DE0114960E946B0B8D01E0E0EC836B
:100E8C00ED83EE83EF83DE0118960E946B0B0E94BC
:100E9C00D60BFA93EA931A930A93E3E4F2E0FA93EB
:100EAC00EA93FE013896FA93EA9399DC198108814A
:100EBC002896FF9008952497E0E0E883E983EA837D
:100ECC00EFE3EB831A930A93EB85FC85EF3FAFEFCF
:100EDC00FA0759F4EE81FF81FA93EA93E0ECF0E023
:100EEC00FA93EA930E94500912C1EF3FAFE7FA0759
:100EFC0059F4EE81FF81FA93EA93E1ECF0E0FA9376
:100F0C00EA930E94500903C1AC85AA2392F4E985A7
:100F1C00FA856B857C850E94C209E987FA876B8705
:100F2C007C87AE81BF811196AE83BF831197EDE2B2
:100F3C00EC93A885A73010F0E6E0E8871885E12F40
:100F4C001150E03079F0AA81BB818C819D81EDEC50
:100F5C00FCEC6CEC7DE30E94B80AEA83FB836C83A7
:100F6C007D83EDCFEA81FB816C817D81A985BA857A
:100F7C008B859C850E94680AE987FA876B877C873A
:100F8C0010E0E0E0F0E060E87FE3EA83FB836C8351
:100F9C007D83EA81FB816C817D81A985BA858B85F6
:100FAC009C850E944B0BE8F0AA81BB818C819D81B2
:100FBC00E0E0F0E060E271E40E94B80AEA83FB83AF
:100FCC006C837D831F5F173258F0EE81FF81FA939B
:100FDC00EA93E5ECF0E0FA93EA930E94500997C08B
:100FEC00D8CF103049F4AE81BF811196AE83BF8348
:100FFC001197E0E3EC9349C0E12F1150E03011F46C
:10100C000C944B08AA81BB818C819D81EDECFCEC8E
:10101C006CEC7DE30E94B80AA0E0B0E080E09FE3B6
:10102C000E94680A0E94EA0B0E949F09EA83FB83D4
:10103C006C837D83A985BA858B859C850E94060B64
:10104C000E94F5090E2FAE81BF811196AE83BF832E
:10105C001197E02FE05DEC93E02FF0E0AA81BB81CB
:10106C008C819D810E947D0B0E942E0A0E94B80AE1
:10107C00A985BA858B859C850E94EF0B0E94610A1D
:10108C00E987FA876B877C87B7CFE885E03009F46E
:10109C003AC0AE81BF811196AE83BF831197EEE249
:1010AC00EC93E885E150E887EF5F69F1A985BA8593
:1010BC008B859C85E0E0F0E060E271E40E94B80A68
:1010CC00E987FA876B877C870E94F5090E2FAE8122
:1010DC00BF811196AE83BF831197E02FE05DEC9337
:1010EC00E02FF0E0A985BA858B859C850E947D0B4D
:1010FC000E942E0A0E94EF0B0E94610AE987FA8770
:10110C006B877C87CECFAE81BF81E0E0EC931981F9
:10111C0008812D960895E881E07111F0AC9A01C018
:10112C00AC98E881E07211F0AD9A01C0AD98E881FD
:10113C00E07411F0AE9A01C0AE98E881E07811F03D
:10114C00AF9A01C0AF9885E08A95F1F7AA9A8DE025
:10115C008A95F1F7AA988DE08A95F1F799C0E88104
:10116C00EA93D9DFE881E295E883E881EA93D3DF5B
:10117C0085E88A95F1F78CC0E881F0E0E253FE4FE8
:10118C00E081A981EA0FEA93EADF4980B8802296D0
:10119C000895E2E0EA93E3DFE3E0F0E0FA93EA9308
:1011AC000E94B609ECE0EA93DADFE1E0EA93D7DFDC
:1011BC00E3E0F0E0FA93EA930E94B609E0E0BE2E79
:1011CC004E2E0895A881AA3011F04A1448F0E0E0A0
:1011DC00EA93B394BA92D0DFA881AA3009F458C02C
:1011EC004394A89AE881EA93BADFA89851C01A935D
:1011FC00A981BA81ED91A983BA831E2FE03019F031
:10120C001A93E0DFF5CF188123960895A49AA59A36
:10121C00A69AA79AA29AA09AA19AAA98A898A998CD
:10122C00A880E881E058E093D001E881E054E09395
:10123C00D101E4E1F0E0FA93EA930E94B609E0E30D
:10124C00EA9369DF88EC90E00197F1F7E0E3EA9329
:10125C0062DF88EC90E00197F1F7E0E3EA935BDF63
:10126C0088EC90E00197F1F7E0E2EA9354DF88EC28
:10127C0090E00197F1F7E8E2EA9371DFE4E0EA939A
:10128C006EDFE5E8EA936BDFE6E0EA9368DF81DF87
:10129C0021960895E991F991A991B991CD01059003
:1012AC000D920020E1F7FC010895A991B991EE2768
:1012BC00FF276D91662311F03196FBCF0895AA2775
:1012CC00BB27E991F9910590002011F01196FBCF05
:1012DC00FD0108957B816A81F981E88177FB770FA5
:1012EC0067FD7160972F9E5781F078F0983190F4DC
:1012FC00AA27BB27882708948795B795A7959A9511
:10130C00D1F7EA23FB23682305C0E8947727EE275F
:10131C00FF2766276F77769508F4606877F9A991AF
:10132C00B99189919991EA17FB076807790797FB9F
:10133C0008950E94E00B0E94EA0B0E9470090E9423
:10134C00E50B19F40E94E00B09C0E6F70E94E00BD4
:10135C00A0E0B0E080E89FE30E94610A2496089523
:10136C00E991F991309639F080ED97E00197F1F71A
:10137C00A8953197C9F7089530976040704009F0EF
:10138C0070580895552342F4503811F4E0FF04C00E
:10139C003196691F791F6BF050E8572711F45F9352
:1013AC00CFC05F3F31F0660F000C57956795752FD6
:1013BC0008955F9300200AF0CFC0C8C050E8192EE2
:1013CC001522880F991F9527550F879550E8072EE2
:1013DC000522660F771F7527550F6795089568943A
:1013EC0001C0E8945F93F2DF703818F07F3F08F487
:1013FC00A7C056E1571BAAF4519558300EF459303A
:10140C0030F0EFEFFFEF6FEF7FE777F91AC0772738
:10141C005523B9F0EE0FFF1F661F771F5A95D1F7B2
:10142C0010C07727583028F0EF2FF62F672F585021
:10143C00F9CF552331F076956795F795E7955A9541
:10144C00D1F700200AF445D15F910895689401C04A
:10145C00E894309760407040B1F0002426F0772378
:10146C0012F4009436D1172E7EE1112032F07A95C9
:10147C00EE0FFF1F661F111CF9CFEF2FF62F612DFA
:10148C005F938ADF5F9108954F93AF01FD01DA01FD
:10149C00AB01BC01CA01402D012C142E4F910895B3
:1014AC00EA0FFB1F681F0895E095F0956095EF5FBC
:1014BC00FF4F6F4F08955F9381DF903871F150E8C3
:1014CC00152604C05F937ADF903839F1703821F11A
:1014DC00572F591B2BF112F4D7DFFACF583118F0D4
:1014EC00AA27BB278827583028F0AB2FB82F88277E
:1014FC005850F9CF552329F08695B795A7955A954D
:10150C00D9F7502D512572F0CBDF38F46795F7954C
:10151C00E795739513F420C0B7DF3EDF5F91089514
:10152C00D8F7FBCFEA1BFB0B680B51F010F40094BF
:10153C00BBDF662392F3EE0FFF1F661F7A95CBF786
:10154C00EE27FF27662777275F910895EFEFFFEFD0
:10155C006FE77FEF5F910895EFEFFFEF6FE77FE7A6
:10156C005F9108955F932ADF703851F3903841F3FF
:10157C0001240894791F23F41CF300203AF3ECCFD8
:10158C000F921F932F933F934F9311272227992745
:10159C00689FA0018F9F302D410D591F6B9F300DFF
:1015AC00411D591F8E9F27D0BF9F25D06A9F23D0E6
:1015BC00BE9F1DD0AF9F1BD0AE9F110D291F391F91
:1015CC00491F591FE32FF42F652F522F4F913F9135
:1015DC002F911F910F9066232AF0550FEE1FFF1FBE
:1015EC00661F02C073954BF2CDDE5F910895100D0E
:1015FC00211D391F02C0200D311D491F591F08958F
:10160C005F93DCDE703821F411200AF49FCFA4CF55
:10161C00903809F495CF01240894970B1BF4D4F35C
:10162C000020F3CF792F1F932F933F934F931124C7
:10163C001127222733274427552790E2AE17BF07DF
:10164C008607410730F0AE1BBF0B860B410B08948D
:10165C0001C08894551F221F331F111CAA1FBB1FCA
:10166C00881F441F9A9551F7F901612D4F913F91B5
:10167C002F911F91662332F0550FEE1FFF1F661F2F
:10168C007A9543F27FDE5F91089599239AF0772340
:10169C0042F0971748F029F4AE17BF07860720F0E1
:1016AC0031F0989488940895989408940895189417
:1016BC00889408957723C2F7971798F3A9F7EA1738
:1016CC00FB07680788F399F3ECCF0024AF0DB01D2E
:1016DC000895F09560957095E195FF4F6F4F7F4F92
:1016EC000895FE2FFF0FFF0B6F2F7F2F08956F2F85
:1016FC00660F660B762F0895002498E0AA0F001C45
:10170C000E1A10F40E0E01C0A1609A95B9F7EA2FCB
:10171C00A02D089539D0F0DF0EF4E19508953F9394
:10172C004F935F93002411244427552730E2AA0FCE
:10173C00BB1F881F991F001C111C441F551F0E1A1C
:10174C001F0A460B570B28F40E0E1F1E461F571F61
:10175C0001C0A1603A9559F7FD01BC01D001CA0145
:10176C005F914F913F910895E894A7FF02C0A19516
:10177C006894E7FDE195C0DFEA2F0EF4E19508953A
:10178C00CEDFFD01BC010895E894E7FF02C0E195AE
:10179C006894A7FF04C0A19500F8039400FA08957B
:1017AC00ED91FC9111970895ED91FD916D917C91C6
:1017BC0013970895E881F9816A817B810895E88304
:1017CC00F9836A837B8308957A936A93FA93EA93F5
:1017DC000895182E862F612D192E972F712D1B2EE3
:1017EC00BF2FF12D1A2EAE2FE12D089530976040AA
:1017FC00704008955A934A933A932A931A930A93F2
:10180C0008955D814C813B812A811981088108955D
:00000001FF
