:040000000C94330029
:100004000C9400000C9400000C9400000C9400006C
:100014000C9400000C9400000C9400000C9400005C
:100024000C9400000C9400000C9400000C9400004C
:100034000C9400000C9400000C9400000C9400003C
:100044000C9400000C9400000C9400000C9400002C
:100054001027E80364000A000100001000011000EA
:100064000100F894EE27ECBBF1E0FBBFEBBFE5BF6A
:100074008DE0A2E0BB27ED938A95E9F780E094E058
:10008400A0E6ED930197E9F7EFE5EDBFE4E0EEBFFD
:10009400C0E6D1E00C945B00AA93E881E066E7B97E
:1000A40083E08A95F1F7369A349BFECF349AE5B112
:1000B4003DC0E0E0EBBBEABBE8BBE7BBE5BBE4BBB0
:1000C400E2BBE1BBE3BFE2BFECBFEFBDEEBDEDBD04
:1000D400ECBDE7BDE6BDEBBDEABDE9BDE8BDE2BDF3
:1000E400E5BDE4BDE3BDE5BFE4BFE9BFEBB9E8E1CD
:1000F400EAB9E6E8E0BDE0E0E0BDECE0E9B9E0E85B
:10010400E8B9E0E0E0BFE0E6E7B9E1E8E6B9E0E05D
:10011400EDB9E6BFA0E0C0DF5E2EA52D02D0FACF78
:10012400FFCFAA935D9BFECFE881ECB92196089599
:00000001FF
